:020000040800F2
:10000000482500209D010008254D000831190008F1
:10001000214D0008F91500086F5400080000000089
:10002000000000000000000000000000414F000838
:10003000F516000800000000B54D000859500008F2
:10004000B7010008B7010008B7010008B7010008B0
:10005000B7010008B7010008B7010008B7010008A0
:10006000B7010008B7010008B7010008B701000890
:10007000B7010008B7010008B7010008B701000880
:10008000B7010008B7010008B7010008B701000870
:10009000B7010008B7010008B7010008B701000860
:1000A000B7010008B7010008B7010008B701000850
:1000B000B7010008C5500008B7010008B7010008E3
:1000C000B7010008B7010008B7010008B701000830
:1000D000B701000851520008B7010008B701000835
:1000E000B7010008B7010008B7010008B701000810
:1000F000B7010008B7010008B7010008B701000800
:10010000B7010008B7010008B7010008B7010008EF
:10011000B7010008B7010008B7010008B7010008DF
:10012000B7010008B7010008B7010008B7010008CF
:10013000B7010008B7010008B7010008B7010008BF
:10014000B7010008B7010008B7010008B7010008AF
:10015000B7010008B7010008B7010008B70100089F
:10016000B7010008B7010008B7010008B70100088F
:10017000B7010008B7010008B7010008B70100087F
:10018000B7010008B7010008DFF80CD001F002F950
:1001900000480047116900084825002006488047AC
:1001A00006480047FEE7FEE7FEE7FEE7FEE7FEE75C
:1001B000FEE7FEE7FEE7FEE75D5000088901000864
:1001C0009FED3A0A5FEA920C53D000BFF0EC010AAF
:1001D0000B1DB0EC011A60EEA00A41EE010AF5EE2B
:1001E000C00AF1EE10FAC6BFB1EEE01A81ED001AB6
:1001F00081ED000AF0EC010A191DB0EC011A60EE65
:10020000A00A41EE010AF5EEC00AF1EE10FAC6BFEF
:10021000B1EEE01A83ED001A83ED000AF0EC010A5A
:100220000B1DB0EC011A60EEA00A41EE010AF5EEDA
:10023000C00AF1EE10FAC6BFB1EEE01A81ED001A65
:1002400081ED000AF0EC010A191DB0EC011A60EE14
:10025000A00A41EE010AF5EEC00AF1EE10FAC6BF9F
:10026000B1EEE01A83ED001A83ED000ABCF1010C37
:10027000ACD112F0030208BF704700BFF0EC010AD6
:100280000B46B0EC011A091D60EEA00A41EE010A0E
:10029000F5EEC00AF1EE10FAC6BFB1EEE01A83ED3A
:1002A000001A83ED000A521EE8D1704700000000DA
:1002B0002DE9F04F8D082DED048B82B00026AC4661
:1002C0003446019506EB0C0909EB0C0A0AEB0C0805
:1002D00000EBC60700EBC90900EBCA0A00EBC8082F
:1002E00097ED003AD9ED003ADAED006A98ED006A30
:1002F00097ED010ADAED014A33EE265A73EE860ACB
:1003000099ED014AD8ED015A30EE241A4FEA440B18
:1003100002EBCB0E70EE644A74EE251A35EE200A1D
:100320009EED002ADEED012A87ED000A31EE210A5A
:1003300073EEC63A34EE656A87ED010A35EE600A5F
:1003400033EE663A71EE610A02EBC40774EEE35ACB
:1003500033EE064A97ED005A73EEA41AD7ED014A20
:1003600033EE461A24EE056A0BEB040725EE855A98
:1003700002EBC70760EE026A65EEA45A24EE244A37
:1003800097ED003AD7ED013A60EEA24A20EE822ABC
:1003900021EE037A20EE220A61EEA30A21EE833ACF
:1003A00061EE231A76EEA42A32EE400A36EE251AC2
:1003B00075EE443AC9ED002A77EE200A89ED010A6C
:1003C00073EE611A8AED001ACAED013AC8ED000A0F
:1003D000761CC8ED011A1C446D1E7FF473AF4FF6F6
:1003E000FF7404EA830B019B0093042B7DD96646BE
:1003F0004FEA9C0C4FF00008C146ACF1010E00BF63
:100400004FEA480303EB080402EBC30302EBC80501
:1004100093ED003AD3ED014A02EBC40395ED005A87
:10042000D5ED015A93ED006A93ED014AD8444B464D
:1004300003EB0C0404EB0C0707EB0C0A00EBC30501
:1004400000EBC70700EBC40400EBCA0AD5ED003A85
:1004500097ED007AD4ED008A9AED008A95ED010AB5
:10046000D4ED010AD7ED017ADAED011A33EEC72A8D
:1004700070EE676A70EEE12A33EE877A78EE883A9A
:1004800030EE270A38EEC81A70EEA11A72EE227A00
:1004900032EE622A77EE232A70EE618A36EEC18A46
:1004A00030EE210A77EE630A31EE261AC5ED002AF6
:1004B00085ED010A28EE050A67EE856A28EE258A91
:1004C00020EE837A20EEA49A68EE831A62EE062A62
:1004D00061EE063A62EE040A67EEA57A68EEA48A37
:1004E00021EE041A36EE882A00E027E077EE286A2B
:1004F00071EEC91A30EE670AC4ED006A32EE811A55
:10050000C4ED011A73EEE00A87ED002A87ED010AB7
:100510008AED001A3344CAED010A8B4288D309F1EF
:100520000109F1457FF66CAF4FF6FF7303EA8B0BC1
:10053000009B9B080093042B3FF659AFDDF8041095
:1005400090ED000AD0ED042A90ED025A90ED031AC6
:10055000D0ED064A90ED073A30EE222AD0ED011A8E
:10056000D0ED050A75EE243A31EE034A30EE620A08
:1005700071EEA02A31EE431A32EE233A71EEE00A10
:1005800075EE641A72EE844A32EE632A72EEC43A51
:1005900080ED003A70EE012AC0ED014A30EEE14AEA
:1005A00080ED022A30EE410AC0ED033A71EEA00A56
:1005B000C0ED042A80ED054A80ED060AC0ED070A69
:1005C0002030491EBCD102B0BDEC048BBDE8F08FD9
:1005D0002DE9F04F4FEA910A2DED048B82B00024F3
:1005E000D446A046CDF804A004EB0C0505EB0C06A0
:1005F00006EB0C0900EBC40700EBC60600EBC505D3
:1006000000EBC909D7ED011AD6ED012A95ED006A74
:10061000D9ED006AD7ED005A96ED007AD5ED010AC2
:1006200099ED011A36EE262A71EEA23A35EE873A96
:1006300071EEE21A30EE815A70EEC12A4FEA480B91
:1006400002EBCB0E73EE020A9EED004ADEED014A8C
:10065000C7ED000A73EE850A36EE666A75EEC75A74
:10066000C7ED010A33EE422A02EBC80731EE861AC3
:1006700033EEC53A71EEC61A97ED006A97ED015A4E
:1006800075EEE20A0BEB080702EBC70775EEA22A2C
:10069000D7ED005AD7ED013A60EE866A22EE047A71
:1006A00062EEA57A23EE044A21EE066A61EEA55AAF
:1006B00060EE850A23EE243A22EE242A21EE051A62
:1006C00061EEA31A62EEA32A76EE203A37EE433AA1
:1006D00074EE020A36EEC11A85ED003A77EEE11AA1
:1006E000C5ED010A35EEA22A86ED001AC6ED013AE3
:1006F000C9ED001A641C89ED012A9844BAF1010A77
:100700007FF472AF4FF6FF7404EA830B019B0093F2
:10071000042B7CD966464FEA9C0C4FF00008C1467A
:10072000ACF1010E4FEA480303EB080402EBC303EC
:1007300002EBC805D3ED003A93ED017A02EBC40356
:10074000D5ED006AD5ED015AD3ED004A93ED013A9B
:10075000D8444B4603EB0C0404EB0C0707EB0C0AE4
:1007600000EBC30500EBC70700EBC40400EBCA0AAB
:1007700095ED012A97ED018A95ED001AD4ED008AD6
:10078000D4ED017A97ED009ADAED001ADAED010A5C
:1007900032EE485A71EE492A38EEE14A32EE082A22
:1007A00037EEA08A37EEE06A78EEA11A31EE091A28
:1007B00075EE048A72EEC67A72EE862A71EE610ACE
:1007C00031EE211A35EE444A32EE489A85ED001A90
:1007D00032EE081A28EEA66A27EEA65A68EEA58A17
:1007E00085ED011A20EEA31A69EE231A22EEA42A3F
:1007F00024EE248A67EEA57A29EE079A60EE870A2E
:1008000024EE034A62EE832A35EE685A00E027E0C0
:1008100036EE276A71EE497A31EEA01A72EE440A7A
:10082000C4ED007A84ED011A78EE221A87ED005AA1
:1008300087ED016ACAED000A3344CAED011A8B4202
:1008400088D309F10109F1457FF66CAF4FF6FF73CC
:1008500003EA8B0B009B9B080093042B3FF65AAFD7
:10086000DDF8041090ED003AD0ED044AD0ED032AF3
:1008700090ED071A90ED024AD0ED061AD0ED013A3C
:10088000D0ED050A33EE242A72EE815A33EE643A33
:1008900034EE215A73EEA04A73EEE03A32EEC11AFA
:1008A00074EE610A32EE454A72EE052A74EEA51A1C
:1008B00034EEE55A73EE414A33EEA02A33EE011AC4
:1008C00033EEE03A62EE805A61EE800A64EE003A5E
:1008D00065EE002AC0ED005A64EE801AC0ED010AF0
:1008E00022EE002AC0ED023A21EE004AC0ED032AB2
:1008F00023EE001AC0ED041A80ED052A80ED064AA9
:1009000080ED071A2030491EACD102B0BDEC048B3B
:10091000BDE8F08F70B504460D4680782188A38924
:10092000626801280ED02846FFF7C2FCE078012853
:1009300018BF70BDE28921882846A368BDE87040D1
:1009400000F03AB994ED040A2846FFF741FEEDE7BE
:1009500010B40180234C446082704FF0000CC370CF
:10096000B1F5807F20D004DC10292FD0402906D19A
:1009700022E0B1F5806F0FD0B1F5805F04D04FF069
:10098000FF3C10BC6046704701218181C18116493E
:100990009FED160A816016E004218181C18114490E
:1009A0009FED140A81600EE010218181C1811249FE
:1009B0009FED120A816006E040218181C1811049CA
:1009C0009FED100A816080ED040ADAE74FF4807130
:1009D0008181C1810C499FED0D0A816080ED040A7F
:1009E000CFE70000808F0008808700080000803972
:1009F000868700080000803A9E8700080000803B40
:100A0000FE8700080000803C7E8900080000803DD1
:100A100070B44FF0000CB0EC010A4E1E6446B508ED
:100A200030D000BFF0EC010AB0EC011AB4EEE00ADD
:100A3000F1EE10FA3CBFB0EE600A0CF10104F0ECEC
:100A4000010AB4EEC10AF1EE10FA3CBFB0EE410A61
:100A50000CF10204B0EC011AB4EEE00AF1EE10FA67
:100A60003CBFB0EE600A0CF10304B4EEC10AF1EE33
:100A700010FA3CBFB0EE410A0CF104040CF1040C76
:100A80006D1ECFD106F0030CBCF1004F0FD300BF99
:100A9000F0EC010AB4EEE00AF1EE10FA3CBFB0EE61
:100AA000600AA1EB0C04BCF1010CF1D115E0BCF122
:100AB000000FC4BF002566460FDD00BFF0EC010A41
:100AC000B4EEE00AF1EE10FA04D2ACEB0504B0EE9D
:100AD000600A0C1B6D1C761EF0D182ED000A1C60B2
:100AE00070BC704770B44FF0000CB0EC010A4E1EA1
:100AF0006446B50830D000BFF0EC010AB0EC011A32
:100B0000B4EEE00AF1EE10FAC4BFB0EE600A0CF1E8
:100B10000104F0EC010AB4EEC10AF1EE10FAC4BF10
:100B2000B0EE410A0CF10204B0EC011AB4EEE00A96
:100B3000F1EE10FAC4BFB0EE600A0CF10304B4EE9B
:100B4000C10AF1EE10FAC4BFB0EE410A0CF1040480
:100B50000CF1040C6D1ECFD106F0030CBCF1004F5C
:100B60000FD300BFF0EC010AB4EEE00AF1EE10FA88
:100B7000C4BFB0EE600AA1EB0C04BCF1010CF1D1D2
:100B800015E0BCF1000FC4BF002566460FDD00BFB5
:100B9000F0EC010AB4EEE00AF1EE10FA04DDACEB81
:100BA0000504B0EE600A0C1B6D1C761EF0D182EDC0
:100BB000000A1C6070BC70472DE9F0014E0801244A
:100BC0004FF0000C04EB51076146A6F102082CE03F
:100BD00061452AD200EBCC0500EBC104D5ED000A3B
:100BE00094ED000AC4ED000A85ED000AD5ED010A76
:100BF00094ED010AC4ED010A85ED010ACC1900EB60
:100C0000C4050CEB070400EBC40495ED000AD4ED19
:100C1000000AC5ED000A84ED000AD4ED010A95ED45
:100C2000010AC5ED010A84ED010A00EBC104B444D8
:100C300000EBCC0C94ED020ADCED000A891CC4ED3B
:100C4000020A8CED000ADCED010A94ED030AC4ED02
:100C5000030A8CED010AB3F800C089B203EB42032A
:100C60004145B5D9BDE8F00170472DE9F0070125F0
:100C70004C0805EB51064FF0000C651E6146002D37
:100C800088BFA8462ED8BDE8F0077047614529D235
:100C900050F8315050F83C7040F8317040F83C50FA
:100CA00000EBC10700EBCC097D68D9F804A0C7F8B8
:100CB00004A0C9F804508D190CEB060750F83590C4
:100CC00050F837A040F835A040F8379000EBC50544
:100CD00000EBC707D5F80490D7F804A0C5F804A026
:100CE000C7F8049000EBC105A444AF6850F83C90ED
:100CF000C5F8089040F83C7000EBCC0CEF68DCF8CD
:100D00000490C5F80C90CCF80470B3F800C0891CAE
:100D100003EB42034145B9D3BDE8F00770472DE925
:100D2000F00F01244D084FF0000C04EB5107012D8A
:100D30009CBFBDE8F00F7047014600EB870400261A
:100D40004FEA550815E000BFBCEB460F11D950F82B
:100D50002CA0D1F80090C1F800A040F82C900CEB2A
:100D60000709D4F800A050F829B0C4F800B040F842
:100D700029A0AC44D1F8049050F82CA0C1F804A0EC
:100D800040F82C90B3F800C008310834761C03EB0F
:100D90004203B8F10108D7D1BDE8F00F70472DE943
:100DA000FE4F81EA030404F0004421F00041009466
:100DB0004FF0000B23F0004350EA01045ED052EAEA
:100DC00003045BD0C3F30A54C1F30A552C44A4F2C4
:100DD000F3340194A0FB0254C1F3130141F48011D8
:100DE000C3F3130343F4801301FB024400FB034EDF
:100DF000840A970A44EA815447EA8357A4FB0768A8
:100E000002958D0A05FB07854FEA932C04FB0C54D1
:100E10002705029D4FEA065847EA1637B5EB080545
:100E20006EEB070C870E920E47EA811742EA831297
:100E3000A7FB0201B6EB0B0164EB00042B0D43EAA8
:100E40000C335E1844EB1C50DA465146E7FB0201B6
:100E5000C5F313044FEA0B3343EA14534FEA043249
:100E6000019C43EA0603A4F10C040294009CCDE922
:100E700000B400F09AF903B0BDE8F08F00200146FD
:100E8000F9E72DE9F04D81EA030404F0004B21F06D
:100E9000004514464FF0000A23F0004150EA0502D5
:100EA00020D054EA01021DD0C5F30A570246C5F30B
:100EB0001303C1F31300C1F30A5640F4801543F441
:100EC0008013A7EB0608101BD64608F2FD3873EB1B
:100ED000050002D308F1010801E092185B41B8F166
:100EE000000F03DA00200146BDE8F08D00204FF42A
:100EF0008011064684460EE0171B73EB050705D3E9
:100F0000121B63EB050306434CEA010C49084FEA48
:100F1000300092185B4150EA0107EDD152EA03001C
:100F200012D082EA040083EA0501084305D0101BB1
:100F3000AB4106D20122002306E000224FF000431D
:100F400002E06FF0010253101AEB06004CEB08515F
:100F500010EB0A0041EB0B01BDE8F04D00F016B9B3
:100F60000EB5C10F80EAE0700844CA07002140F2C4
:100F700033438DE80E000A460B4600F016F903B025
:100F800000BD0EB540F2334102910021CDE90011C0
:100F90000A460B4600F009F903B000BD70B5C1F375
:100FA0000A5201F000450024C1F3130140F2FF335F
:100FB00041F480119A4201DA002070BD40F23343BF
:100FC0009A42A2F2334203DC524200F098F800E069
:100FD00090402C43F1D0404270BDC1F30A5210B58D
:100FE000C1F3130140F2FF3341F480119A4201DA58
:100FF000002010BD40F233439A42A2F2334203DC98
:10100000524200F07CF810BD904010BD00F000424C
:1010100030F000400AD0C10D01F56071C0F3160038
:1010200042EA0151C20840071143704700200146BF
:101030007047000030B5041E71F1000404DB4FF06E
:101040000044404264EB0101141E73F1000405DB0F
:101050001C464FF00043524263EB04038B4208BF2F
:10106000824230BD01F0004330B421F0004150EA2B
:10107000010206D00A0DA2F56072C1F31301002A25
:1010800002DC30BC00207047440F44EAC104C100B8
:10109000E01830BC00EBC25000F041B82DE9F05F21
:1010A0000546002092469B468846064681464024D7
:1010B0001BE0284641464746224600F020F85346AA
:1010C0005A46C01A914110D311461846224600F0E4
:1010D00073F92D1A67EB01084F46224601200021C3
:1010E00000F06AF917EB00094E41201EA4F101043B
:1010F000DFDC484631462A464346BDE8F09F202AB9
:1011000004DB203A21FA02F00021704721FA02F3B1
:10111000D040C2F12002914008431946704700298F
:10112000A8BF7047401C490008BF20F0010070476D
:1011300010B4B0FA80FC00FA0CF050EA010404BFCD
:1011400010BC704749B1CCF1200421FA04F411FA23
:101150000CF118BF012121430843A3EB0C01CB1D67
:101160004FEA00614FEA102042BF002010BC7047D8
:1011700000EBC35010440029A4BF10BC7047401CB2
:10118000490008BF20F0010010BC704710B5141EC4
:1011900073F1000408DA401C41F1000192185B4130
:1011A0001A4301D120F0010010BD2DE9F04D924607
:1011B0009B4611B1B1FA81F202E0B0FA80F220321E
:1011C000904600F0F9F804460F4640EA0A0041EA6A
:1011D0000B0153465A46084313D0114653EA010007
:1011E00019D0C8F140025046FFF789FF05460E4668
:1011F00050465946424600F0DFF8084305D001202A
:1012000004E020463946BDE8F08D0020054346EA5B
:10121000E0762C4337430A986305E40AA0EB080004
:101220000022FD0A44EA47540A3002D50020014654
:10123000E9E7010510196941DDE90845001969412F
:10124000BDE8F04DA2E72DE9FE4F804681EA03009C
:10125000C00F0C46009021F0004123F00045B8EB90
:101260000200A94105D24046214690461C460B4645
:10127000024623F00040104347D0270DC7F30A0071
:10128000C3F30A510290401A019040286BDAC3F36D
:10129000130040F4801B0098924620B10023D2EB4B
:1012A000030A63EB0B0B01985946C0F1400250460C
:1012B00000F082F806460D4650465946019A00F065
:1012C0008AF810EB08006141002487EA115284EA91
:1012D000E7731A4340D0009A62B3019A012A4FEA99
:1012E000075215DC001B61EB02014FF0004202EADD
:1012F0000752CDE90042001C41F5801132462B46D1
:10130000FFF753FF03B0BDE8F08F40462146F9E7F1
:10131000001B61EB0201001C41F5801300185B41CA
:101320002018A2F5001747EB030140EAD570B61963
:101330006D4111E06D084FEA360645EAC0754FEA87
:101340000752001B61EB0201001C41F580114908A6
:101350004FEA30000019514132462B4603B0BDE838
:10136000F04FFFF713BF0098012240000023D0EB9D
:10137000020263EBE073009821464FEAE074B8EB99
:10138000000061EB0401E9E783F000435BE781F0D3
:10139000004158E7064C074D06E0E06840F00103C5
:1013A00094E8070098471034AC42F6D3FEF7F0FEFD
:1013B000A0100108C0100108202A04DB203A00FA1E
:1013C00002F1002070479140C2F1200320FA03F39C
:1013D000194390407047202A06DBCB17203A41FA88
:1013E00002F043EAE07306E041FA02F3D040C2F1B2
:1013F0002002914008431946704721B1826842F0AB
:101400000102826003E0826822F00102826070477C
:101410000021084A1168084A1140D0E900231A4304
:1014200083681A43C3681A431143044AC2F8041379
:101430007047000004230140E030FCFF0020014021
:101440000146C86C80B270470246002013680B400A
:101450000BB1012000E000207047000030B50246CB
:10146000002000235068104C20400D790C6844EA9D
:1014700005242043506090680C4C2040D1E903546F
:101480002C438D682C434D7944EA450420439060F9
:10149000D06A20F470000C7D641EE4B2234340EA5D
:1014A0000350D06230BD0000FFFEFFFCFDF7FFC01F
:1014B000F0B504460D4600200021092D11DDE0683D
:1014C000A5F10A0606EB4607072606FA07F1884348
:1014D000A5F10A0606EB460603FA06F10843E060AA
:1014E0000CE0206905EB4507072606FA07F188435B
:1014F00005EB450603FA06F108432061072A0FDAD7
:10150000606B561E06EB86071F2606FA07F1884316
:10151000561E06EB860605FA06F10843606322E0D4
:101520000D2A0FDA206BD61F06EB86071F2606FA58
:1015300007F18843D61F06EB860605FA06F1084335
:10154000206310E0E06AA2F10D0606EB86071F2675
:1015500006FA07F18843A2F10D0606EB860605FAA6
:1015600006F10843E062F0BD816841F0804181608E
:101570007047000000B58DB00121084603F01CFC47
:101580000121080203F048FC20200B9003208DF875
:10159000300000208DF833000BA9154800F039F910
:1015A0000121080203F048FC00214FF4807003F091
:1015B00043FC002007900A9009904FF48030089077
:1015C00007A8FFF725FF002001908DF808008DF88F
:1015D00009000390059001208DF8180001A9054825
:1015E000FFF73CFF01210348FFF707FF0DB000BDE7
:1015F000000002400020014000BFFEE739B1084A68
:101600001268012383401A43054B1A6006E0044A1E
:101610001268012383409A43014B1A60704700000F
:101620000074004008B50146002000900548009075
:101630002C2000EB9100009A104400900098006864
:1016400080B208BD0074004030B5002200230A4C6F
:10165000226840F6FE748440A243D1E900452C4341
:101660008D682C43CD6844EA050303FA00F4224355
:10167000014C226030BD00000074004008B500221B
:101680000092054A009200F10802009B1A44009261
:10169000009A116008BD00000074004000B587B0DA
:1016A0000121084603F088FB0121480703F0A4FB51
:1016B0001020059003208DF8180002208DF81B00E3
:1016C00005A90B4800F0A5F80020019002900390B6
:1016D0000220049001A90020FFF7B6FF012100209D
:1016E000FFF78CFF00210846FFF7C8FF07B000BDD9
:1016F000000002407047000051B18200A2F1C042D8
:10170000126842F001038200A2F1C042136009E0B6
:101710008200A2F1C0421268034B1A408300A3F179
:10172000C0431A6070470000FEFF0F00D0E90112AD
:101730001143C2681143026911434269114382692E
:101740001143C2691143026A1143426A1143826A1A
:101750001143C26A1143026B114302689200A2F165
:10176000C0421160816808290BD101688900A1F18C
:10177000C041096841F0400201688900A1F1C041FF
:101780000A60416B0968426B526841EA0211426B80
:10179000926841EA0221426B928941EA0241426B1E
:1017A000128A41EA0251426B127D41EA0261426BA8
:1017B000926911430268521C9200A2F1C04211606A
:1017C000C16AB1F5804F1BD1816B0968826B526889
:1017D00041EA0211826B926841EA0221826B128A0D
:1017E00041EA0251826B127D41EA0261826B926989
:1017F000114302689200A2F1C042C2F8041107E04E
:101800006FF0704201688900A1F1C041C1F8042164
:101810007047F0B50A4600210023002400BF3DE0D8
:10182000012505FA01F3156805EA03049C4234D149
:1018300005684F000326BE40B543056015794E008C
:10184000B5400668354305601579012D02D015793C
:10185000022D16D185684F000326BE40B543856032
:1018600055794E00B5408668354385604568012648
:101870008E40B5434560456896798E40B6B2354393
:101880004560C5684F000326BE40B543C560D579A5
:101890004E00B540C6683543C560491C1029BFD30A
:1018A000F0BDF0B5002300244D07ED0E02FA05F35C
:1018B000CE1000F1200555F826504E07F70E0F26E2
:1018C000BE40B543CF1000F1200646F82750CE1099
:1018D00000F1200555F8265045EA0304CE1000F12A
:1018E000200545F82640F0BD0246002013690B4054
:1018F0000BB1012000E00020704701837047000019
:1019000010B504460723012221460848FFF7D0FD01
:101910000648FFF729FE00BF02210448FFF794FDA7
:101920000028F9D00148FFF78BFD10BD00200140D1
:1019300000BFFEE71CB50121112003F03DFA1C2079
:10194000009000208DF8040003208DF80500012090
:101950008DF8070069460648FFF75BFF01200090FD
:1019600002208DF8070069460248FFF752FF1CBDB0
:10197000001002400000024010B5044614B10120DE
:101980002C4908702B480078002837D010212A48AD
:10199000FFF7AAFF78B108212748FFF7A5FF50B14C
:1019A00004212548FFF7A0FF28B101212348FFF7B4
:1019B0009BFF012822D10A2004F0ACFB00201D4926
:1019C000087010211C48FFF78FFF08B9012010BDD7
:1019D00008211948FFF788FF08B90220F7E704211A
:1019E0001548FFF781FF08B90320F0E701211348EC
:1019F000FFF77AFF01281BD10420E8E710210E48E9
:101A0000FFF772FF012813D108210B48FFF76CFF85
:101A100001280DD104210848FFF766FF012807D1EE
:101A200001210648FFF760FF10B901200149087045
:101A30000020CCE70000002000100240000002401F
:101A400070B50446002609480588408845430021B2
:101A5000084602F063FF03F02FF900BF02E00448DC
:101A60000480761CAE42FAD370BD00005000002006
:101A70008000006C10B5044649488471002C45D1A3
:101A8000F020474908804FF4A070488008468088BD
:101A900045F21051884210D14FF43050404908812E
:101AA0004FF4285048814FF42C5088814FF4F07047
:101AB00008804FF4487048801AE03948808841F621
:101AC000631188420DD12C20354908812B20488193
:101AD0002A2088814FF4F07008804FF448704880C5
:101AE00006E02C202E4908812A2048812B2088815D
:101AF0002B48808845F2103188424CD14FF4A070B9
:101B0000274908804FF4F070488044E04FF4A070FB
:101B100023490880F02048800846808845F210510B
:101B2000884210D14FF430501D4908814FF428509D
:101B300048814FF42C5088814FF4487008804FF44E
:101B4000F07048801AE01648808841F66311884298
:101B50000DD12C20124908812A2048812B20888110
:101B60004FF4487008804FF4F070488006E02C2055
:101B70000B4908812A2048812B20888108488088C9
:101B800045F21031884206D14FF4F07004490880C4
:101B90004FF4A0704880002002F0A6FD10BD0000A8
:101BA000500000202DE9FF4F84B081468A46002076
:101BB000039002900698A0EB09050798A0EB0A068F
:101BC000CDF80490CDF800A0002D01DD012705E03F
:101BD0000DB9002702E04FF0FF376D42002E02DD05
:101BE0004FF0010806E016B94FF0000802E04FF090
:101BF000FF387642B54201DD2C4600E034464FF016
:101C0000000B21E0009A91B2019A90B200F022F804
:101C10000398284403900298304402900398A0420D
:101C200005DD0398001B0390019838440190029849
:101C3000A04205DD0298001B0290009840440090ED
:101C40000BF101001FFA80FB601C8345DADD08B050
:101C5000BDE8F08F30B504460D462946204602F017
:101C60005DFE03F029F8024800880249088030BD73
:101C7000020000208000006C2DE9F04306460F466C
:101C80009046002445460320A0EB48093CE07A1B1F
:101C900091B2321990B2FFF7DDFF3A1B91B272197F
:101CA00090B2FFF7D7FF3A1991B2721990B2FFF7CD
:101CB000D1FF7A1991B2321990B2FFF7CBFF7A199E
:101CC00091B2321B90B2FFF7C5FF3A1991B2721B65
:101CD00090B2FFF7BFFF7A1B91B2321B90B2FFF7B1
:101CE000B9FF3A1B91B2721B90B2FFF7B3FF641CAD
:101CF000B9F1000F03DAA000801D814404E0601BED
:101D000080000A3081446D1EAC42C0DDBDE8F08326
:101D100030B504460D463948808845F21051884256
:101D200020D13649488902F0BBFF201202F0ACFFF7
:101D300032494989491C88B202F0B2FFE0B202F090
:101D4000A3FF2E49888902F0ABFF281202F09CFF06
:101D50002A498989491C88B202F0A2FFE8B202F040
:101D600093FF42E02548808841F66311884228D1DC
:101D70002248807920B921480088401E001B84B287
:101D80001E49488902F08CFF201202F07DFFE0B26C
:101D900002F07AFF201202F077FFE0B202F074FF47
:101DA0001649888902F07CFF281202F06DFFE8B224
:101DB00002F06AFF281202F067FFE8B202F064FF47
:101DC00013E00E49488902F06BFF201202F05CFF1D
:101DD000E0B202F059FF0949888902F061FF281238
:101DE00002F052FFE8B202F04FFF044800890449B4
:101DF00008804FF0D840A0F8802030BD500000206F
:101E00007E00006C00B5A1B00020209001217A2056
:101E100002F0D2FF0121084602F0DEFF4FF400403D
:101E20001E9001208DF87C0000208DF87E0002209D
:101E30008DF87D0001208DF87F001EA9FE48FFF778
:101E4000E8FC4CF233701E9002208DF87C000020DC
:101E50008DF87E0003208DF87D0001208DF87F0035
:101E60001EA9F648FFF7D5FC4FF680701E900220A1
:101E70008DF87C0000208DF87E0003208DF87D0019
:101E800001208DF87F001EA9ED48FFF7C2FC4FF43A
:101E900080501E9002208DF87C0000208DF87E007E
:101EA00003208DF87D0001208DF87F001EA9E548F4
:101EB000FFF7AFFC4FF480501E9002208DF87C009D
:101EC00000208DF87E0003208DF87D0001208DF824
:101ED0007F001EA9DC48FFF79CFC0C220021D7489C
:101EE000FFF7DFFC0C220121D448FFF7DAFC0C22BB
:101EF0000421D248FFF7D5FC0C220521CF48FFF77B
:101F0000D0FC0C220821CD48FFF7CBFC0C22092184
:101F1000CA48FFF7C6FC0C220A21C848FFF7C1FCDB
:101F20000C220E21C548FFF7BCFC0C220F21C34830
:101F3000FFF7B7FC0C220721C148FFF7B2FC0C22C7
:101F40000821BF48FFF7ADFC0C220921BC48FFF770
:101F5000A8FC0C220A21BA48FFF7A3FC0C220B2193
:101F6000B748FFF79EFC0C221146B548FFF799FCD5
:101F70000C220D21B248FFF794FC0C220E21B04830
:101F8000FFF78FFC0C220F21AD48FFF78AFC0C22D3
:101F90001146AC48FFF785FC0C221146AA48FFF712
:101FA00080FC0F200890002009903C200A9000201F
:101FB0000B900C900D900E90092001900020029043
:101FC00008200390002004900590069007900620BA
:101FD0000F9000201090119010201290002013906C
:101FE00015901490169017904FF480501890002080
:101FF00019904FF480401A9000201B9008A81C9064
:1020000001A81D900FA8FFF791FB01210620FFF703
:1020100073FB322004F07EF8D32002F041FE02F080
:1020200029FB8A49888002F025FB8849888002F0D4
:1020300021FB86498880084680884FF6FF7101EAB7
:1020400000208249888002F015FB80498988084376
:102050007E4988800846808849F2413188427DD097
:10206000042002F01DFE02F005FB7849888002F092
:1020700001FB7649888002F0FDFA744988800846A1
:1020800080884FF6FF7101EA00207049888002F0D5
:10209000F1FA6E49898808436C498880084680882F
:1020A00048F25251884203D147F2897067498880CB
:1020B0006648808847F289718842D0D0D42002F0E7
:1020C000EFFD02F0D7FA6149888002F0D3FA5F4948
:1020D000888002F0CFFA5D498880084680884FF6F4
:1020E000FF7101EA00205949888002F0C3FA57497C
:1020F00089880843554988800846808845F2103110
:1021000088426BD055214FF4704002F0DFFDAA21C8
:102110004FF2010002F0DAFD52214FF2020002F00C
:10212000D5FD08214FF2030002F0D0FD01214FF24E
:10213000040002F0CBFD4FF4454002F0B1FD02F087
:1021400099FA42498880084680884FF6FF7101EA73
:1021500000203E4988804CF2015000E03EE002F051
:102160009FFD02F087FA39498988084337498880FA
:10217000052003F0CFFF35488088B0F5004F03D12C
:1021800045F21050314988803048808845F210511E
:10219000884223D0A12002F083FD02F06BFA2B4984
:1021A000888002F067FA29498880084680884FF6BF
:1021B000FF7101EA00202549888002F05BFA23497B
:1021C00089880843214988800846808845F26171E2
:1021D000884203D141F663101C4988801B488088DF
:1021E00049F24131884217D01848808847F28971F6
:1021F000884211D01548808845F2103188420BD0B2
:102200001248808845F21051884205D00F488088D6
:1022100041F6631188423BD10D48006820F00F0061
:102220004FF02041C1F81C010846D0F81C0120F4F1
:102230007060C1F81C010DE000040240000C024077
:10224000001002400014024000180240500000201C
:102250001C0100A00846D0F81C0140F00300C1F8A2
:102260001C01FE48808847F28971884208D1FC48E9
:10227000006840F440704FF02041C1F81C0107E0B5
:10228000F748006840F400704FF02041C1F81C018D
:10229000F2488188F3A003F0EDF8F048808849F215
:1022A000413188427ED1CF2002F0FAFC002002F0BA
:1022B000EBFCC12002F0E8FC302002F0E5FCED2050
:1022C00002F0EEFC642002F0DFFC032002F0DCFCF4
:1022D000122002F0D9FC812002F0D6FCE82002F0A6
:1022E000DFFC852002F0D0FC102002F0CDFC7A202B
:1022F00002F0CAFCCB2002F0D3FC392002F0C4FC6F
:102300002C2002F0C1FC002002F0BEFC342002F0C0
:10231000BBFC022002F0B8FCF72002F0C1FC202038
:1023200002F0B2FCEA2002F0BBFC002002F0ACFCA0
:10233000002002F0A9FCC02002F0B2FC1B2002F039
:10234000A3FCC12002F0ACFC012002F09DFCC520E2
:1023500002F0A6FC302002F097FC302002F094FC42
:10236000C72002F09DFCB72002F08EFC362002F060
:1023700097FC482002F088FC3A2002F091FC55209E
:1023800002F082FCB12002F08BFC002002F07CFC09
:102390001A2002F079FCB62002F082FC0A2002F03A
:1023A00073FC00E097E0A22002F06EFCF22002F045
:1023B00077FC002002F068FC262002F071FC01206E
:1023C00002F062FCE02002F06BFC0F2002F05CFCEB
:1023D0002A2002F059FC282002F056FC082002F0C6
:1023E00053FC0E2002F050FC082002F04DFC54205B
:1023F00002F04AFCA92002F047FC432002F044FC12
:102400000A2002F041FC0F2002F03EFC002002F006
:102410003BFC002002F038FC002002F035FC0020DC
:1024200002F032FCE12002F03BFC002002F02CFC28
:10243000152002F029FC172002F026FC072002F0EC
:1024400023FC112002F020FC062002F01DFC2B20B2
:1024500002F01AFC562002F017FC3C2002F014FC9B
:10246000052002F011FC102002F00EFC0F2002F0FB
:102470000BFC3F2002F008FC3F2002F005FC0F207F
:1024800002F002FC2B2002F00BFC002002F0FCFB0F
:10249000002002F0F9FB012002F0F6FB3F2002F0E1
:1024A000F3FB2A2002F0FCFB002002F0EDFB0020F1
:1024B00002F0EAFB002002F0E7FBEF2002F0E4FB71
:1024C000112002F0EDFB782003F024FE292002F019
:1024D000E7FB02F0B3B86148808847F2897188420F
:1024E0007ED1112002F0DCFB782003F013FE3620B1
:1024F00002F0D6FB002002F0C7FB3A2002F0D0FB2E
:10250000052002F0C1FBB22002F0CAFB0C2002F051
:10251000BBFB0C2002F0B8FB002002F0B5FB33201F
:1025200002F0B2FB332002F0AFFBB72002F0B8FBA1
:10253000352002F0A9FBBB2002F0B2FB322002F0F2
:10254000A3FBC02002F0ACFB0C2002F09DFBC220DC
:1025500002F0A6FB012002F097FBC32002F0A0FBD3
:10256000102002F091FBC42002F09AFB202002F020
:102570008BFBC62002F094FB0F2002F085FBD020DD
:1025800002F08EFBA42002F07FFBA12002F07CFB76
:10259000E02002F085FBD02002F076FB002002F064
:1025A00073FB022002F070FB072002F06DFB0A2093
:1025B00002F06AFB282002F067FB322002F064FB85
:1025C000442002F061FB422002F05EFB062002F094
:1025D0005BFB0E2002F058FB122002F055FB00E0DE
:1025E00061E0142002F050FB172002F04DFBE120C7
:1025F00002F056FBD02002F047FB002002F044FB23
:10260000022002F041FB072002F03EFB0A2002F00C
:102610003BFB282002F038FB312002F035FB542030
:1026200002F032FB472002F02FFB0E2002F02CFBC1
:102630001C2002F029FB172002F026FB1B2002F0D1
:1026400023FB1E2002F020FB2A2002F029FB0020A1
:1026500002F01AFB002002F017FB0BE050000020F4
:102660001C0100A0204C43442049443A25780D0A1F
:1026700000000000002002F007FBEF2002F004FB46
:102680002B2002F00DFB002002F0FEFA002002F0E9
:10269000FBFA012002F0F8FA3F2002F0F5FA2920B7
:1026A00002F0FEFA15E7FE48808845F210318842B4
:1026B00040F07C87ED2002F0F3FA012002F0E4FA0A
:1026C000FE2002F0E1FAEE2002F0EAFADE2002F04B
:1026D000DBFA212002F0D8FAF12002F0E1FA012021
:1026E00002F0D2FADF2002F0DBFA102002F0CCFA7E
:1026F000C42002F0D5FA8F2002F0C6FAC62002F0FC
:10270000CFFA002002F0C0FAE22002F0BDFAE22087
:1027100002F0BAFAE22002F0B7FABF2002F0C0FAE3
:10272000AA2002F0B1FAB02002F0BAFA0D2002F0AD
:10273000ABFA002002F0A8FA0D2002F0A5FA002062
:1027400002F0A2FA112002F09FFA002002F09CFA97
:10275000192002F099FA002002F096FA212002F0E6
:1027600093FA002002F090FA2D2002F08DFA00205A
:1027700002F08AFA3D2002F087FA002002F084FA83
:102780005D2002F081FA002002F07EFA5D2002F066
:102790007BFA002002F078FAB12002F081FA802062
:1027A00002F072FA002002F06FFA8B2002F06CFA4D
:1027B000002002F069FA962002F066FA002002F08A
:1027C00063FAB22002F06CFA002002F05DFA0020F9
:1027D00002F05AFA022002F057FA002002F054FAEE
:1027E000032002F051FA002002F04EFAB32002F06A
:1027F00057FA002002F048FA002002F045FA0020C3
:1028000002F042FA002002F03FFA002002F03CFA07
:10281000002002F039FA002002F036FA002002F01F
:1028200033FA002002F030FA002002F02DFA0020E6
:1028300002F02AFA002002F027FA002002F024FA1F
:10284000002002F021FA002002F01EFA002002F01F
:102850001BFA002002F018FA002002F015FA0020FE
:1028600002F012FA002002F00FFA002002F00CFA37
:10287000002002F009FA002002F006FA002002F01F
:1028800003FAB42002F00CFA8B2002F0FDF90020CC
:1028900002F0FAF9962002F0F7F9002002F0F4F9BC
:1028A000A12002F0F1F9002002F0EEF9B52002F0CB
:1028B000F7F9022002F0E8F9002002F0E5F9032020
:1028C00002F0E2F9002002F0DFF9042002F0DCF966
:1028D000002002F0D9F9B62002F0E2F9002002F05F
:1028E000D3F9002002F0D0F9B72002F0D9F9002086
:1028F00002F0CAF9002002F0C7F93F2002F0C4F943
:10290000002002F0C1F95E2002F0BEF9002002F0C2
:10291000BBF9642002F0B8F9002002F0B5F98C2070
:1029200002F0B2F9002002F0AFF9AC2002F0ACF9ED
:10293000002002F0A9F9DC2002F0A6F9002002F044
:10294000A3F9702002F0A0F9002002F09DF9902078
:1029500002F09AF9002002F097F9EB2002F094F9C6
:10296000002002F091F9DC2002F08EF9002002F044
:102970008BF9B82002F094F9002002F085F90020CC
:1029800002F082F9002002F07FF9002002F07CF9C9
:10299000002002F079F9002002F076F9002002F020
:1029A00073F9002002F070F9BA2002F079F92420BE
:1029B00002F06AF9002002F067F9002002F064F9E1
:1029C000002002F061F9C12002F06AF9202002F033
:1029D0005BF9002002F058F9542002F055F900206C
:1029E00002F052F9FF2002F04FF9002002F04CF9FA
:1029F000C22002F055F90A2002F046F9002002F048
:102A000043F9042002F040F9002002F03DF9C32010
:102A100002F046F93C2002F037F9002002F034F9C8
:102A20003A2002F031F9002002F02EF9392002F0AC
:102A30002BF9002002F028F9372002F025F90020B8
:102A400002F022F93C2002F01FF9002002F01CF9EC
:102A5000362002F019F9002002F016F9322002F0B7
:102A600013F9002002F010F92F2002F00DF90020D8
:102A700002F00AF92C2002F007F9002002F004F914
:102A8000292002F001F9002002F0FEF8262002F0D1
:102A9000FBF8002002F0F8F8242002F0F5F801E03D
:102AA00050000020002002F0EFF8242002F0ECF8A3
:102AB000002002F0E9F8232002F0E6F8002002F0FE
:102AC000E3F83C2002F0E0F8002002F0DDF83620C8
:102AD00002F0DAF8002002F0D7F8322002F0D4F841
:102AE000002002F0D1F82F2002F0CEF8002002F0F2
:102AF000CBF82C2002F0C8F8002002F0C5F82920FD
:102B000002F0C2F8002002F0BFF8262002F0BCF864
:102B1000002002F0B9F8242002F0B6F8002002F0FC
:102B2000B3F8242002F0B0F8002002F0ADF8232022
:102B300002F0AAF8002002F0A7F8C42002F0B0F8D2
:102B4000622002F0A1F8002002F09EF8052002F0B9
:102B50009BF8002002F098F8842002F095F80020FD
:102B600002F092F8F02002F08FF8002002F08CF8CA
:102B7000182002F089F8002002F086F8A42002F064
:102B800083F8002002F080F8182002F07DF8002081
:102B900002F07AF8502002F077F8002002F074F882
:102BA0000C2002F071F8002002F06EF8172002F0FD
:102BB0006BF8002002F068F8952002F065F800201C
:102BC00002F062F8F32002F05FF8002002F05CF8F7
:102BD000E62002F059F8002002F056F8C52002F075
:102BE0005FF8322002F050F8002002F04DF8442047
:102BF00002F04AF8002002F047F8652002F044F89D
:102C0000002002F041F8762002F03EF8002002F0A9
:102C10003BF8882002F038F8002002F035F8C62092
:102C200002F03EF8202002F02FF8002002F02CF8ED
:102C3000172002F029F8002002F026F8012002F007
:102C400023F8002002F020F8C72002F029F8002025
:102C500002F01AF8002002F017F8002002F014F831
:102C6000002002F011F8C82002F01AF8002002F04B
:102C70000BF8002002F008F8002002F005F8002010
:102C800002F002F8C92002F00BF8002001F0FCFF6E
:102C9000002001F0F9FF002001F0F6FF002001F014
:102CA000F3FF002001F0F0FF002001F0EDFF002015
:102CB00001F0EAFF002001F0E7FF002001F0E4FF4F
:102CC000002001F0E1FF002001F0DEFF002001F014
:102CD000DBFF002001F0D8FF002001F0D5FF00202D
:102CE00001F0D2FF002001F0CFFFE02001F0D8FF7B
:102CF000162001F0C9FF002001F0C6FF1C2001F0E2
:102D0000C3FF002001F0C0FF212001F0BDFF002023
:102D100001F0BAFF362001F0B7FF002001F0B4FF48
:102D2000462001F0B1FF002001F0AEFF522001F07B
:102D3000ABFF002001F0A8FF642001F0A5FF0020F8
:102D400001F0A2FF7A2001F09FFF002001F09CFF1C
:102D50008B2001F099FF002001F096FF992001F0EF
:102D600093FF002001F090FFA82001F08DFF0020CC
:102D700001F08AFFB92001F087FF002001F084FFF5
:102D8000C42001F081FF002001F07EFFCA2001F085
:102D90007BFF002001F078FFD22001F075FF0020BA
:102DA00001F072FFD92001F06FFF002001F06CFFED
:102DB000E02001F069FF002001F066FFF32001F040
:102DC00063FF002001F060FFE12001F069FF1620A1
:102DD00001F05AFF002001F057FF1C2001F054FFC2
:102DE000002001F051FF222001F04EFF002001F0F1
:102DF0004BFF362001F048FF002001F045FF452041
:102E000001F042FF002001F03FFF522001F03CFFA3
:102E1000002001F039FF642001F036FF002001F0AE
:102E200033FF7A2001F030FF002001F02DFF8B20CE
:102E300001F02AFF002001F027FF992001F024FF74
:102E4000002001F021FFA82001F01EFF002001F06A
:102E50001BFFB92001F018FF002001F015FFC4206E
:102E600001F012FF002001F00FFFCA2001F00CFF5B
:102E7000002001F009FFD22001F006FF002001F040
:102E800003FFD82001F000FF002001F0FDFEE0204C
:102E900001F0FAFE002001F0F7FEF32001F0F4FE4D
:102EA000002001F0F1FEE22001F0FAFE052001F021
:102EB000EBFE002001F0E8FE0B2001F0E5FE002013
:102EC00001F0E2FE1B2001F0DFFE002001F0DCFE3D
:102ED000342001F0D9FE002001F0D6FE442001F09C
:102EE000D3FE002001F0D0FE4F2001F0CDFE0020E7
:102EF00001F0CAFE612001F0C7FE002001F0C4FE0F
:102F0000792001F0C1FE002001F0BEFE882001F012
:102F1000BBFE002001F0B8FE972001F0B5FE0020B6
:102F200001F0B2FEA62001F0AFFE002001F0ACFEE1
:102F3000B72001F0A9FE002001F0A6FEC22001F09A
:102F4000A3FE002001F0A0FEC72001F09DFE00209E
:102F500001F09AFED12001F097FE002001F094FECE
:102F6000D62001F091FE002001F08EFEDD2001F060
:102F70008BFE002001F088FEF32001F085FE00208A
:102F800001F082FEE32001F08BFE052001F07CFEC3
:102F9000002001F079FE0A2001F076FE002001F009
:102FA00073FE1C2001F070FE002001F06DFE332046
:102FB00001F06AFE002001F067FE442001F064FE8B
:102FC000002001F061FE502001F05EFE002001F0C3
:102FD0005BFE622001F058FE002001F055FE7820D3
:102FE00001F052FE002001F04FFE882001F04CFE5F
:102FF000002001F049FE972001F046FE002001F07C
:1030000043FEA62001F040FE002001F03DFEB72067
:1030100001F03AFE002001F037FEC22001F034FE3C
:10302000002001F031FEC72001F02EFE002001F04B
:103030002BFED12001F028FE002001F025FED52036
:1030400001F022FE002001F01FFEDD2001F01CFE39
:10305000002001F019FEF32001F016FE002001F01F
:1030600013FEE42001F01CFE012001F00DFE002003
:1030700001F00AFE012001F007FE002001F004FE2D
:10308000022001F001FE002001F0FEFD2A2001F0E7
:10309000FBFD002001F0F8FD3C2001F0F5FD0020D3
:1030A00001F0F2FD4B2001F0EFFD002001F0ECFDFE
:1030B0005D2001F0E9FD002001F0E6FD742001F043
:1030C000E3FD002001F0E0FD842001F0DDFD0020A3
:1030D00001F0DAFD932001F0D7FD002001F0D4FDCE
:1030E000A22001F0D1FD002001F0CEFDB32001F0BF
:1030F000CBFD002001F0C8FDBE2001F0C5FD002081
:1031000001F0C2FDC42001F0BFFD002001F0BCFDB4
:10311000CD2001F0B9FD002001F0B6FDD32001F073
:10312000B3FD002001F0B0FDDD2001F0ADFD002079
:1031300001F0AAFDF32001F0A7FD002001F0A4FD9D
:10314000E52001F0ADFD002001F09EFD002001F022
:103150009BFD002001F098FD002001F095FD02206C
:1031600001F092FD002001F08FFD292001F08CFD7F
:10317000002001F089FD3C2001F086FD002001F0D7
:1031800083FD4B2001F080FD002001F07DFD5D20DE
:1031900001F07AFD002001F077FD742001F074FD4C
:1031A000002001F071FD842001F06EFD002001F08F
:1031B0006BFD932001F068FD002001F065FDA22069
:1031C00001F062FD002001F05FFDB32001F05CFD25
:1031D000002001F059FDBE2001F056FD002001F055
:1031E00053FDC42001F050FD002001F04DFDCD2025
:1031F00001F04AFD002001F047FDD32001F044FD1D
:10320000002001F041FDDC2001F03EFD002001F036
:103210003BFDF32001F038FD002001F035FDE620F4
:1032200001F03EFD112001F02FFD002001F02CFDEA
:10323000342001F029FD002001F026FD562001F088
:1032400023FD002001F020FD762001F01DFD00206F
:1032500001F01AFD772001F017FD002001F014FDA8
:10326000662001F011FD002001F00EFD882001F024
:103270000BFD002001F008FD992001F005FD002064
:1032800001F002FDBB2001F0FFFC002001F0FCFC7E
:10329000992001F0F9FC002001F0F6FC662001F015
:1032A000F3FC002001F0F0FC552001F0EDFC0020C3
:1032B00001F0EAFC552001F0E7FC002001F0E4FCFD
:1032C000452001F0E1FC002001F0DEFC432001F08C
:1032D000DBFC002001F0D8FC442001F0D5FC0020EC
:1032E00001F0D2FCE72001F0DBFC322001F0CCFC45
:1032F000002001F0C9FC552001F0C6FC002001F0BF
:10330000C3FC762001F0C0FC002001F0BDFC66206B
:1033100001F0BAFC002001F0B7FC672001F0B4FC1A
:10332000002001F0B1FC672001F0AEFC002001F0AC
:10333000ABFC872001F0A8FC002001F0A5FC99203F
:1033400001F0A2FC002001F09FFCBB2001F09CFCDE
:10335000002001F099FC992001F096FC002001F07A
:1033600093FC772001F090FC002001F08DFC4420BC
:1033700001F08AFC002001F087FC562001F084FC5B
:10338000002001F081FC232001F07EFC002001F0F0
:103390007BFC332001F078FC002001F075FC452017
:1033A00001F072FC002001F06FFCE82001F078FCD5
:1033B000002001F069FC002001F066FC992001F07A
:1033C00063FC002001F060FC872001F05DFC002020
:1033D00001F05AFC882001F057FC002001F054FC59
:1033E000772001F051FC002001F04EFC662001F036
:1033F0004BFC002001F048FC882001F045FC002037
:1034000001F042FCAA2001F03FFC002001F03CFC4E
:10341000BB2001F039FC002001F036FC992001F0BE
:1034200033FC002001F030FC662001F02DFC002070
:1034300001F02AFC552001F027FC002001F024FCBB
:10344000552001F021FC002001F01EFC442001F079
:103450001BFC002001F018FC442001F015FC0020AA
:1034600001F012FC552001F00FFC002001F00CFCD3
:10347000E92001F015FCAA2001F006FC002001F073
:1034800003FC002001F000FC002001F0FDFB002007
:1034900001F006FCAA2001F0F7FBCF2001F000FCB0
:1034A000002001F0F1FB002001F0EEFB002001F014
:1034B000EBFB002001F0E8FB002001F0E5FB002021
:1034C00001F0E2FB002001F0DFFB002001F0DCFB5B
:1034D000002001F0D9FB002001F0D6FB002001F014
:1034E000D3FB002001F0D0FB002001F0CDFB002039
:1034F00001F0CAFB002001F0C7FB002001F0C4FB73
:10350000002001F0C1FBF02001F0CAFB002001F017
:10351000BBFB502001F0B8FB002001F0B5FB002000
:1035200001F0B2FB002001F0AFFBF32001F0B8FB8B
:10353000002001F0A9FBF92001F0B2FB062001F008
:10354000A3FB102001F0A0FB292001F09DFB00202F
:1035500001F09AFB3A2001F0A3FB552001F094FB07
:10356000112001F09DFB642002F0D4FD292001F020
:1035700097FB352001F094FB002001F085FB5120E2
:1035800001F08EFBFF2001F07FFB532001F088FB50
:103590002C2001F079FB552001F082FB822001F004
:1035A00073FB2C2001F07CFB01F048B8FE488088BA
:1035B00045F2105188427DD155214FF4704001F001
:1035C00085FBAA214FF2010001F080FB52214FF24E
:1035D000020001F07BFB08214FF2030001F076FBB3
:1035E00001214FF2040001F071FB0D214FF4304036
:1035F00001F06CFB0D214BF2010001F067FB0D2186
:103600004BF2020001F062FB34214FF4364001F02E
:103610005DFB34214BF2016001F058FB34214BF289
:10362000026001F053FB0D214FF4314001F04EFBDD
:103630000D214BF2011001F049FB0D214BF202105C
:1036400001F044FB34214FF4374001F03FFB3421BB
:103650004BF2017001F03AFB34214BF2027001F0A1
:1036600035FB00214FF4324001F030FB00214BF2DA
:10367000012001F02BFB00214BF2022001F026FB80
:1036800024214FF4384001F021FB24214BF60100A6
:1036900001F01CFB24214BF6020001F017FB012175
:1036A0004FF43F4001F012FB0F214FF4334001F083
:1036B0000DFB00E0FDE30F214BF2013001F006FBB2
:1036C0000F214BF2023001F001FB34214FF439405D
:1036D00001F0FCFA34214BF6011001F0F7FA342125
:1036E0004BF6021001F0F2FA08214FF4354001F0D8
:1036F000EDFA08214BF2015001F0E8FA08214BF2F3
:10370000025001F0E3FA03214FF4424001F0DEFAE7
:1037100024214FF43A4001F0D9FA24214BF601203C
:1037200001F0D4FA24214BF6022001F0CFFA002157
:103730004FF43C4001F0CAFA78214BF6014001F009
:10374000C5FA00214BF6024001F0C0FA00214FF407
:103750003D4001F0BBFA78214BF6015001F0B6FA7A
:1037600000214BF6025001F0B1FA00214FF43E4027
:1037700001F0ACFA64214BF6016001F0A7FA0021D8
:103780004FF4514001F0A2FA33214DF2011001F043
:103790009DFA00214DF2021001F098FA34214DF209
:1037A000031001F093FA00214DF2041001F08EFA9B
:1037B0003A214DF2051001F089FA00214DF2061070
:1037C00001F084FA4A214DF2071001F07FFA00213E
:1037D0004DF2081001F07AFA5C214DF2091001F067
:1037E00075FA00214DF20A1001F070FA81214DF2B4
:1037F0000B1001F06BFA00214DF20C1001F066FA8B
:10380000A6214DF20D1001F061FA00214DF20E10CB
:1038100001F05CFAE5214DF20F1001F057FA012199
:103820004DF2101001F052FA13214DF2111001F077
:103830004DFA01214DF2121001F048FA54214DF2D7
:10384000131001F043FA01214DF2141001F03EFA79
:1038500082214DF2151001F039FA01214DF21610B6
:1038600001F034FACA214DF2171001F02FFA0221AB
:103870004DF2181001F02AFA00214DF2191001F052
:1038800025FA02214DF21A1001F020FA01214DF221
:103890001B1001F01BFA02214DF21C1001F016FA68
:1038A00034214DF21D1001F011FA02214DF21E10CB
:1038B00001F00CFA67214DF21F1001F007FA022106
:1038C0004DF2201001F002FA84214DF2211001F096
:1038D000FDF902214DF2221001F0F8F9A4214DF278
:1038E000231001F0F3F902214DF2241001F0EEF95A
:1038F000B7214DF2251001F0E9F902214DF2261011
:1039000001F0E4F9CF214DF2271001F0DFF9022197
:103910004DF2281001F0DAF9DE214DF2291001F004
:10392000D5F902214DF22A1001F0D0F9F2214DF221
:103930002B1001F0CBF902214DF22C1001F0C6F949
:10394000FE214DF22D1001F0C1F903214DF22E1090
:1039500001F0BCF910214DF22F1001F0B7F903214D
:103960004DF2301001F0B2F933214DF2311001F077
:10397000ADF903214DF2321001F0A8F96D214DF29D
:10398000331001F0A3F900214FF4524001F09EF9E9
:1039900033214DF2012001F099F900214DF202206E
:1039A00001F094F9342101E0500000204DF2032091
:1039B00001F08CF900214DF2042001F087F93A2141
:1039C0004DF2052001F082F900214DF2062001F0B0
:1039D0007DF94A214DF2072001F078F900214DF2DE
:1039E000082001F073F95C214DF2092001F06EF915
:1039F00000214DF20A2001F069F981214DF20B20DE
:103A000001F064F900214DF20C2001F05FF9A621CC
:103A10004DF20D2001F05AF900214DF20E2001F077
:103A200055F9E5214DF20F2001F050F901214DF239
:103A3000102001F04BF913214DF2112001F046F94D
:103A400001214DF2122001F041F954214DF21320D1
:103A500001F03CF901214DF2142001F037F98221E7
:103A60004DF2152001F032F901214DF2162001F03E
:103A70002DF9CA214DF2172001F028F902214DF24B
:103A8000182001F023F900214DF2192001F01EF950
:103A900002214DF21A2001F019F901214DF21B20EB
:103AA00001F014F902214DF21C2001F00FF934212C
:103AB0004DF21D2001F00AF902214DF21E2001F005
:103AC00005F967214DF21F2001F000F902214DF2A6
:103AD000202001F0FBF884214DF2212001F0F6F8BE
:103AE00002214DF2222001F0F1F8A4214DF2232011
:103AF00001F0ECF802214DF2242001F0E7F8B721A3
:103B00004DF2252001F0E2F802214DF2262001F0CD
:103B1000DDF8CF214DF2272001F0D8F802214DF237
:103B2000282001F0D3F8DE214DF2292001F0CEF853
:103B300002214DF22A2001F0C9F8F2214DF22B208A
:103B400001F0C4F802214DF22C2001F0BFF8FE2153
:103B50004DF22D2001F0BAF803214DF22E2001F094
:103B6000B5F810214DF22F2001F0B0F803214DF2ED
:103B7000302001F0ABF833214DF2312001F0A6F8EE
:103B800003214DF2322001F0A1F86D214DF23320D6
:103B900001F09CF800214FF4534001F097F83321D5
:103BA0004DF2013001F092F800214DF2023001F0A7
:103BB0008DF834214DF2033001F088F800214DF2E8
:103BC000043001F083F83A214DF2053001F07EF81F
:103BD00000214DF2063001F079F84A214DF207300C
:103BE00001F074F800214DF2083001F06FF85C210B
:103BF0004DF2093001F06AF800214DF20A3001F06F
:103C000065F881214DF20B3001F060F800214DF292
:103C10000C3001F05BF8A6214DF20D3001F056F8A2
:103C200000214DF20E3001F051F8E5214DF20F3038
:103C300001F04CF801214DF2103001F047F813214A
:103C40004DF2113001F042F801214DF2123001F035
:103C50003DF854214DF2133001F038F801214DF2B6
:103C6000143001F033F882214DF2153001F02EF8B6
:103C700001214DF2163001F029F8CA214DF217301A
:103C800001F024F802214DF2183001F01FF8002154
:103C90004DF2193001F01AF802214DF21A3001F0FC
:103CA00015F801214DF21B3001F010F802214DF200
:103CB0001C3001F00BF834214DF21D3001F006F8F4
:103CC00002214DF21E3001F001F867214DF21F3044
:103CD00000F0FCFF02214DF2203000F0F7FF8421BC
:103CE0004DF2213000F0F2FF02214DF2223000F0BF
:103CF000EDFFA4214DF2233000F0E8FF02214DF248
:103D0000243000F0E3FFB7214DF2253000F0DEFF54
:103D100002214DF2263000F0D9FFCF214DF227309D
:103D200000F0D4FF02214DF2283000F0CFFFDE2159
:103D30004DF2293000F0CAFF02214DF22A3000F086
:103D4000C5FFF2214DF22B3000F0C0FF02214DF2F1
:103D50002C3000F0BBFFFE214DF22D3000F0B6FFFD
:103D600003214DF22E3000F0B1FF10214DF22F3023
:103D700000F0ACFF03214DF2303000F0A7FF3321FB
:103D80004DF2313000F0A2FF03214DF2323000F04D
:103D90009DFF6D214DF2333000F098FF00214FF46C
:103DA000544000F093FF33214DF2014000F08EFFAC
:103DB00000214DF2024000F089FF34214DF2034012
:103DC00000F084FF00214DF2044000F07FFF3A2113
:103DD0004DF2054000F07AFF00214DF2064000F060
:103DE00075FF4A214DF2074000F070FF00214DF2AF
:103DF000084000F06BFF5C214DF2094000F066FFC7
:103E000000214DF20A4000F061FF81214DF20B408C
:103E100000F05CFF00214DF20C4000F057FFA6219E
:103E20004DF20D4000F052FF00214DF20E4000F027
:103E30004DFFE5214DF20F4000F048FF01214DF20A
:103E4000104000F043FF13214DF2114000F03EFFFF
:103E500001214DF2124000F039FF54214DF2134080
:103E600000F034FF01214DF2144000F02FFF8221B9
:103E70004DF2154000F02AFF01214DF2164000F0EE
:103E800025FFCA214DF2174000F020FF02214DF21C
:103E9000184000F01BFF00214DF2194000F016FF02
:103EA00002214DF21A4000F011FF01214DF21B409A
:103EB00000E005E300F00AFF02214DF21C4000F093
:103EC00005FF34214DF21D4000F000FF02214DF2AC
:103ED0001E4000F0FBFE67214DF21F4000F0F6FE91
:103EE00002214DF2204000F0F1FE84214DF22140EC
:103EF00000F0ECFE02214DF2224000F0E7FEA4218A
:103F00004DF2234000F0E2FE02214DF2244000F089
:103F1000DDFEB7214DF2254000F0D8FE02214DF222
:103F2000264000F0D3FECF214DF2274000F0CEFE18
:103F300002214DF2284000F0C9FEDE214DF2294059
:103F400000F0C4FE02214DF22A4000F0BFFEF22133
:103F50004DF22B4000F0BAFE02214DF22C4000F051
:103F6000B5FEFE214DF22D4000F0B0FE03214DF2D2
:103F70002E4000F0ABFE10214DF22F4000F0A6FEC7
:103F800003214DF2304000F0A1FE33214DF23140CB
:103F900000F09CFE03214DF2324000F097FE6D21AF
:103FA0004DF2334000F092FE00214FF4554000F0F6
:103FB0008DFE33214DF2015000F088FE00214DF2BC
:103FC000025000F083FE34214DF2035000F07EFEDB
:103FD00000214DF2045000F079FE3A214DF20550D7
:103FE00000F074FE00214DF2065000F06FFE4A21F1
:103FF0004DF2075000F06AFE00214DF2085000F02B
:1040000065FE5C214DF2095000F060FE00214DF28A
:104010000A5000F05BFE81214DF20B5000F056FE7D
:1040200000214DF20C5000F051FEA6214DF20D5032
:1040300000F04CFE00214DF20E5000F047FEE5214D
:104040004DF20F5000F042FE01214DF2105000F0F1
:104050003DFE13214DF2115000F038FE01214DF2CA
:10406000125000F033FE54214DF2135000F02EFE9A
:1040700001214DF2145000F029FE82214DF215501D
:1040800000F024FE01214DF2165000F01FFECA215F
:104090004DF2175000F01AFE02214DF2185000F0B8
:1040A00015FE00214DF2195000F010FE02214DF2D4
:1040B0001A5000F00BFE01214DF21B5000F006FEDD
:1040C00002214DF21C5000F001FE34214DF21D5032
:1040D00000F0FCFD02214DF21E5000F0F7FD6721BB
:1040E0004DF21F5000F0F2FD02214DF2205000F081
:1040F000EDFD84214DF2215000F0E8FD02214DF24A
:10410000225000F0E3FDA4214DF2235000F0DEFD2B
:1041100002214DF2245000F0D9FDB7214DF2255077
:1041200000F0D4FD02214DF2265000F0CFFDCF214A
:104130004DF2275000F0CAFD02214DF2285000F048
:10414000C5FDDE214DF2295000F0C0FD02214DF2E7
:104150002A5000F0BBFDF2214DF22B5000F0B6FDCD
:1041600002214DF22C5000F0B1FDFE214DF22D50F8
:1041700000F0ACFD03214DF22E5000F0A7FD102100
:104180004DF22F5000F0A2FD03214DF2305000F00F
:104190009DFD33214DF2315000F098FD03214DF289
:1041A000325000F093FD6D214DF2335000F08EFD42
:1041B00000214FF4564000F089FD33214DF201609B
:1041C00000F084FD00214DF2026000F07FFD3421FB
:1041D0004DF2036000F07AFD00214DF2046000F022
:1041E00075FD3A214DF2056000F070FD00214DF2A1
:1041F000066000F06BFD4A214DF2076000F066FD9D
:1042000000214DF2086000F061FD5C214DF2096073
:1042100000F05CFD00214DF20A6000F057FD8121A5
:104220004DF20B6000F052FD00214DF20C6000F0E9
:104230004DFDA6214DF20D6000F048FD00214DF22C
:104240000E6000F043FDE5214DF20F6000F03EFDF1
:1042500001214DF2106000F039FD13214DF2116083
:1042600000F034FD01214DF2126000F02FFD5421C9
:104270004DF2136000F02AFD01214DF2146000F0B0
:1042800025FD82214DF2156000F020FD01214DF247
:10429000166000F01BFDCA214DF2176000F016FDFC
:1042A00002214DF2186000F011FD00214DF219605D
:1042B00000F00CFD02214DF21A6000F007FD012113
:1042C0004DF21B6000F002FD02214DF21C6000F077
:1042D000FDFC34214DF21D6000F0F8FC02214DF28E
:1042E0001E6000F0F3FC67214DF21F6000F0EEFC51
:1042F00002214DF2206000F0E9FC84214DF22160A2
:1043000000F0E4FC02214DF2226000F0DFFCA42169
:104310004DF2236000F0DAFC02214DF2246000F03F
:10432000D5FCB7214DF2256000F0D0FC02214DF202
:10433000266000F0CBFCCF214DF2276000F0C6FCD8
:1043400002214DF2286000F0C1FCDE214DF229600F
:1043500000F0BCFC02214DF22A6000F0B7FCF22113
:104360004DF22B6000F0B2FC02214DF22C6000F007
:10437000ADFCFE214DF22D6000F0A8FC03214DF2B2
:104380002E6000F0A3FC10214DF22F6000F09EFC87
:1043900003214DF2306000F099FC33214DF2316081
:1043A00000F094FC03214DF2326000F08FFC6D218F
:1043B0004DF2336000F08AFC55214FF4704000F05C
:1043C00085FCAA214FF2010000F080FC52214FF23F
:1043D000020000F07BFC08214FF2030000F076FCA5
:1043E00000214FF2040000F071FCCC214FF4314069
:1043F00000F06CFC00214BF2011000F067FC05217D
:104400004FF4364000F062FC70214FF4374000F06A
:104410005DFC70214BF2017000F058FC01214FF45B
:10442000384000F053FC03214BF6010000F04EFC35
:1044300003214BF6020000F049FC03214BF6030078
:1044400000F044FC02214FF43C4000F03FFC00210E
:104450004BF6014000F03AFC00214BF6024000F020
:1044600035FCD0214FF4494000F030FC02214CF6DD
:10447000011000F02BFC50214CF6021000F026FC3D
:1044800050214CF6031000F021FC50214CF6041092
:1044900000F01CFC00214FF4545000F017FC552193
:1044A0004FF4685000F012FC4FF4885000F0F8FB15
:1044B000782001F04BFE4FF4245000F0F1FBBDE0FA
:1044C0006448808841F663118842F8D1E22000F008
:1044D000E7FB1D2000F0D8FB022000F0D5FB0420F4
:1044E00000F0D2FB642001F031FEE02000F0D8FBA8
:1044F000012000F0C9FB0A2001F00CFEE02000F0D2
:10450000CFFB032000F0C0FB0C2001F003FE0120D4
:1045100000F0C6FB0A2001F0FDFDE62000F0C0FB24
:104520002F2000F0B1FBFF2000F0AEFBFF2000F0D9
:10453000ABFBB02000F0B4FB202000F0A5FB002076
:1045400000F0A2FB032000F09FFB40F21F3000F0C0
:104550009BFB012000F098FB40F2DF1000F094FB81
:10456000002000F091FBB42000F09AFB042000F042
:104570008BFB40F21F4000F087FB002000F084FB23
:104580002E2000F081FB002000F07EFB002000F0D8
:104590007BFB002000F078FB002000F075FBB620CC
:1045A00000F07EFB022000F06FFB4FF4037000F080
:1045B0006BFB002000F068FB172000F065FB152066
:1045C00000F062FB002000F05FFB002000F05CFBCD
:1045D000F02000F065FB032000F056FB292000F0DE
:1045E0005FFBD02000F05CFB002000F04DFBBE2004
:1045F00000F056FB052000F047FBFE2000F044FBD6
:10460000012000F041FB002000F03EFB002000F004
:104610003BFB002000F038FBB82000F041FB0320FA
:1046200000F032FB012000F02FFBBA2000F038FB35
:10463000012000F029FB642000F026F80020FDF79F
:1046400019FA0120044908604FF6FF70FDF7F8F9E8
:1046500021B000BD50000020BC82404210B502468F
:10466000012000E050430B00A1F10104E1B2F9D1B7
:1046700010BD000008B5034800880090BDF8000098
:1046800008BD00008000006C70B52DED048B044661
:10469000BE2000F005FB052000F0F6FA2046FCF7EE
:1046A00070FC41EC190B9FED0E0B53EC102BFCF73B
:1046B00076FB41EC180BFCF790FC85B2284600F025
:1046C000E3FA012000F0E0FAFF2000F0DDFA00201C
:1046D00000F0DAFA002000F0D7FABDEC048B70BDD0
:1046E0006666666666660440F0B5054600240027E7
:1046F00089488079012805D18748808841F663116F
:10470000884208D184488079F0B98348808841F68E
:104710006311884218D1082D15D2DFE805F0040690
:10472000080A0C0E101206250DE007250BE00425E3
:1047300009E0052507E0012505E0002503E0032544
:1047400001E0022500BF00BF082D1CD2DFE805F004
:104750000406090C0F12151800BF14E044F0800481
:1047600011E044F040040EE044F0C0040BE044F0DB
:10477000200408E044F0600405E044F0A00402E0F6
:1047800044F0E00400BF00BF6348808845F2105148
:10479000884202D14FF4585700E036275E4880889F
:1047A00049F24131884205D05B48808847F28971DF
:1047B000884201D144F008042146384600F086FAC8
:1047C0005548808841F6631188421DD004F02000CE
:1047D00068B15148008850494988884214DA4E48E7
:1047E000068840884C490880084646800CE04A48C4
:1047F000008849494988884206DD4748068840883C
:1048000045490880084646804348808845F2105153
:10481000884252D14049488900F042FA002000F015
:1048200033FA3D494989491C88B200F039FA002021
:1048300000F02AFA38494989891C88B200F030FA18
:1048400035490988491EC1F30F2000F01DFA32498D
:104850004989C91C88B200F023FA2F490978491EFA
:10486000C8B200F011FA2C49888900F019FA00202A
:1048700000F00AFA28498989491C88B200F010FA28
:10488000002000F001FA24498989891C88B200F0CF
:1048900007FA21494988491EC1F30F2000F0F4F9B5
:1048A0001D498989C91C88B200F0FAF91A4989782A
:1048B000491EC8B200F0E8F92DE01749488900F018
:1048C000EFF9002000F0E0F9002000F0DDF91249D6
:1048D0000988491EC1F30F2000F0D6F90E49097866
:1048E000491EC8B200F0D0F90B49888900F0D8F908
:1048F000002000F0C9F9002000F0C6F906494988F7
:10490000491EC1F30F2000F0BFF903498978491E01
:10491000C8B200F0B9F9F0BD5000002010B5024651
:104920000C464548808841F66311884247D1424889
:104930008079A8B940480088401E801A82B23E495A
:10494000488900F0ADF9002000F09EF9002000F049
:104950009BF9101200F098F9D0B200F095F916E02A
:104960003549488900F09CF9101200F08DF9D0B259
:1049700000F08AF930490988491EC1F30F2000F080
:1049800083F92D490978491EC8B200F07DF92A49FA
:10499000888900F085F9201200F076F9E0B200F085
:1049A00073F925494988491EC1F30F2000F06CF9BD
:1049B00021498978491EC8B200F066F93AE01E48DC
:1049C000808845F21051884220D11B49488900F067
:1049D00067F9101200F058F917494989491C88B243
:1049E00000F05EF9D0B200F04FF91349888900F069
:1049F00057F9201200F048F90F498989491C88B2FB
:104A000000F04EF9E0B200F03FF913E00A4948899E
:104A100000F046F9101200F037F9D0B200F034F986
:104A20000549888900F03CF9201200F02DF9E0B228
:104A300000F02AF910BD0000500000202DE9F84FC9
:104A400080460E4617461C46B3462046E31704EB45
:104A50005373DB1021464FEAE47C04EB5C7C4FEAA5
:104A6000EC0CA4EBCC0CBCF1000F02D04FF0010C0D
:104A700001E04FF0000C6344224604EBD27C4FEA85
:104A80006C0C03FB0CF3DBB20093A7F12000C7B260
:104A9000002556E00C2C07D107EB47002B4901EB12
:104AA000800010F8059013E0102C05D1284800EB89
:104AB000071010F805900BE0182C07D107EBC70082
:104AC000244901EB800010F8059001E0BDE8F88F63
:104AD0004FF0000A2FE009F0800030B11E48028834
:104AE00031464046FDF714F907E00A9828B91B48FB
:104AF000028831464046FDF70BF94FEA49604FEA1C
:104B00001069701C86B216484088B04200DCDDE7B0
:104B1000A6EB0B00A0420AD15E4608F101001FFA85
:104B200080F80F480088404500DCCFE706E00AF136
:104B3000010000F0FF0ABAF1080FCCDB00BF681CCF
:104B4000C5B200988542A5DB00BFBFE7C06F000873
:104B500034740008247A00080200002004000020B9
:104B6000500000202DE9F84704460D46904699462E
:104B7000DDE9096704F0FF0A08EB04001FFA80F87A
:104B800009EB05001FFA80F916E0444502DB5446A4
:104B9000A81985B24D4500DB14E0002000903A785A
:104BA000334629462046FFF749FF304606EBD071D1
:104BB00004EB61018CB27F1C38787E2802DC3878E7
:104BC0002028E2DA00BFBDE8F8872DE9FF4F82B068
:104BD000064692461F46DDE90F4800200190002559
:104BE0004DE0781B401EC1B20A20FFF737FDBAFB2B
:104BF000F0F00A21B0FBF1F201FB1209019850BB61
:104C0000781EA84227DDB9F1000F22D108F08000FC
:104C100078B108F00100A34604EBDB71491001FBF9
:104C20000561009088B2234630220399FFF706FF02
:104C30000EE008F00100A34604EBDB71491001FB14
:104C40000561009088B2234620220399FFF7F6FE03
:104C500013E00120019008F00100A34604EBDB7192
:104C6000491001FB0561009088B209F13001CAB218
:104C700023460399FFF7E2FE00BF681CC5B2BD42A0
:104C8000AFDB06B0BDE8F08F01B5BDF800000090C5
:104C9000BDF800000149088008BD00008000006CDC
:104CA00001B5BDF800000090BDF800000149088082
:104CB00008BD00007E00006C02480089024908809F
:104CC00070470000500000207E00006C034A1080F6
:104CD0004FF0D842A2F88010704700007E00006CB0
:104CE0001CB50121202000F067F84FF4C06000904F
:104CF00001208DF8040000208DF8060003208DF8B7
:104D0000050001208DF8070069460448FCF781FD85
:104D10004FF4C0610148FCF7F0FD1CBD00140240D7
:104D200000BFFEE77047000070B5002100230F228E
:104D3000C4781CB3174C246804F4E064C4F5E06440
:104D4000C4F30721C1F10404E3B20A4144789C4052
:104D5000E1B28478144021430C07210E0E4C0578F3
:104D60006155047804F01F050124AC4005786D11ED
:104D7000AD0005F1E025C5F8004109E0047804F034
:104D80001F050124AC40054D0678761145F82640F4
:104D900070BD00000CED00E000E400E080E100E008
:104DA00002490143024A1160704700000000FA0501
:104DB0000CED00E07047000029B1064A126802437A
:104DC000044B1A6004E0034A12688243014B1A60E4
:104DD000704700003038024029B1064A1268024389
:104DE000044B1A6004E0034A12688243014B1A60C4
:104DF000704700003838024029B1064A1268024361
:104E0000044B1A6004E0034A12688243014B1A60A3
:104E1000704700004038024029B1064A1268024338
:104E2000044B1A6004E0034A12688243014B1A6083
:104E3000704700004438024029B1064A1268024314
:104E4000044B1A6004E0034A12688243014B1A6063
:104E50007047000024380240F0B5002100220024F1
:104E6000022500260223324F3F6807F00C0121B1D2
:104E7000042905D0082937D105E02E4F076036E018
:104E80002D4F076033E02A4F3F1F3F68C7F380561E
:104E9000274F3F1F3F6807F03F036EB1264FB7FB18
:104EA000F3F7DFF88CC0ACF1040CDCF800C0CCF3F5
:104EB000881C07FB0CF40CE01E4FB7FBF3F7DFF880
:104EC00070C0ACF1040CDCF800C0CCF3881C07FB0C
:104ED0000CF4174F3F1F3F68C7F301477F1C7D004D
:104EE000B4FBF5F7076002E0124F076000BF00BF98
:104EF0000F4F3F6807F0F0010909104F7A5C07680F
:104F0000D74047600A4F3F6807F4E051890A0B4FCA
:104F10007A5C4768D7408760054F3F6807F4604177
:104F2000490B064F7A5C4768D740C760F0BD000068
:104F3000083802400024F40000127A000600002025
:104F4000704700000CB500200190009034480068C4
:104F500040F480303249086000BF3148006800F4F6
:104F6000003000900198401C0190009818B90198F9
:104F7000B0F5A04FF1D12A48006800F4003010B11C
:104F80000120009001E0002000900098012846D107
:104F900023484030006840F080502149403108608B
:104FA0002048006840F440401E4908601C48083012
:104FB00000681B49083108600846006840F400405A
:104FC00008600846006840F4A05008601648091FB1
:104FD0000860081F006840F08070091F086000BF6B
:104FE0000F48006800F000700028F9D040F205700A
:104FF0000E4908600A480830006820F0030008499C
:10500000083108600846006840F00200086000BFF0
:1050100003480830006800F00C000828F8D10CBDE7
:10502000003802400070004008544007003C024035
:10503000042808D14FF0E021096941F004014FF044
:10504000E022116107E04FF0E021096921F004013D
:105050004FF0E022116170477047000010B515480D
:10506000006840F47000134908601348006840F07D
:1050700001001149086000200F49083108600E48FE
:1050800000680E4908400C4908600D48091D086079
:10509000081F006820F48020091F086000200649CE
:1050A0000C310860FFF74EFF4FF000600149803976
:1050B000086010BD88ED00E000380240FFFFF6FEFA
:1050C0001030002410B50121104800F064F8E0B160
:1050D0000F48006838B901200D49086040F6FE709D
:1050E0000C49088008E00A480068012804D1002023
:1050F0000749086007490880064801880020FCF736
:10510000BDFA0121014800F037F810BD000400404D
:1051100030000020280000207FB505460C464FF4E3
:105120008070ADF80C000020ADF806000295ADF8D7
:10513000044001210220FFF75FFE01A90D4800F0A5
:1051400045F8012211460B4800F036F81D208DF875
:10515000000001208DF803008DF8010003208DF878
:1051600002006846FFF7E0FD0021024800F007F862
:105170007FBD000000040040CA430282704721B195
:10518000028842F00102028004E002884FF6FE73BA
:105190001A400280704730B50246002000230024E8
:1051A000158A05EA0103958905EA010413B10CB1DA
:1051B000012000E0002030BD1AB183890B438381B8
:1051C00002E083898B4383817047000000220288BC
:1051D000184B98420ED0184B98420BD0B0F1804F2C
:1051E00008D0164B984205D0154B984202D0154B6B
:1051F000984204D14FF68F731A404B881A43124BD2
:10520000984207D0114B984204D04FF6FF431A4002
:105210000B891A4302804B68C3620B880385054BD8
:10522000984202D0044B984201D18B7A0386012325
:1052300083827047000001400004014000040040E8
:1052400000080040000C0040001000400014004026
:1052500010B540F225511D4800F04AF810B31B4824
:1052600000F000F9C4B21A48008800F40040C8B940
:105270001748008800F4804060B10A2C03D0002059
:105280001349088020E01248008840F4004010498B
:10529000088019E00D2C06D10D48008840F48040AC
:1052A0000B49088010E00A480088C0F30D00094946
:1052B0000C5407480088401C0549088008460088AF
:1052C000C72801DD0020088010BD0000001001404B
:1052D000200000205E00002021B1828942F40052AB
:1052E000828104E082894DF6FF731A408281704703
:1052F00070B50246002400230025002040F66A16FF
:10530000B14200D100BFC1F3421501F01F030126D5
:1053100006FA03F3012D02D19689334006E0022DEF
:1053200002D1168A334001E0968A33400C120126DE
:1053300006FA04F41688344013B10CB1012000E0E1
:10534000002070BDF0B50346002400260025002093
:1053500040F66A17B94200D100BF1846C1F34214A3
:1053600001F01F06012707FA06F5012C01D10C30C8
:1053700004E0022C01D1103000E014301AB10768AB
:105380002F43076002E00768AF430760F0BD0000ED
:105390002DE9FF4705460E460024A14600BFA04662
:1053A000B08900B100BF2C8A24F44054F088044333
:1053B0002C82AC8941F20C608443B0883189084367
:1053C000718908430443AC81AC8A24F44074B089E9
:1053D0000443AC826846FFF73FFD2048854202D077
:1053E0001F48854202D1DDF80C9001E0DDF80890FD
:1053F000A88900F4004040B109EBC90000EB091096
:1054000031684900B0FBF1F707E009EBC90000EB98
:10541000091031688900B0FBF1F76420B7FBF0F0A8
:1054200004012009642101FB1078A88900F40040E0
:1054300040B1322000EBC800B0FBF1F000F00700F3
:10544000044308E0322000EB08106421B0FBF1F0C7
:1054500000F00F0004432C81BDE8FF8700100140DD
:105460000014014001468888C0F30800704700BF5F
:10547000FEE700000FB4054B10B503A9044A0298DB
:1054800000F0C4FC10BC5DF814FB00005967000874
:105490001C0000200FB4084B10B504A902AA039801
:1054A00000F0B4FC044602A9002000F00FFE2046E4
:1054B00010BC5DF814FB0000CD60000803B4019837
:1054C0004100009850EAC12018BF04204A0D18BFBF
:1054D00040F0010040F2FF72B2EB515F08BF40F0B4
:1054E0000200012808BF052002B07047000000003C
:1054F00010B52F499FED2C1B2DED020B84B00598A4
:1055000020F000408842DCBF00209DED040B32DD1E
:105510002849884209D1049840B94FF0010000F0B1
:105520006FFC00F03DFC06B010BD05DB9DED040BEB
:1055300000F02AFC06B010BD68469DED040B00F09B
:105540003BF810F0030011D0012818D09DED021B8C
:105550009DED000B02281AD000F04AFA51EC100B16
:1055600081F0004106B041EC100B10BD9DED021B17
:105570009DED000B012000F06FFB06B010BD9DED0E
:10558000021B9DED000B00F033FA06B010BD0120A8
:1055900000F062FB51EC100B81F0004106B041ECD1
:1055A000100B10BD00000000000000000000000013
:1055B000FB21E93F0000F07F2DE9F14F04462DED7E
:1055C000020B2DED088B8AB09FEDE70B80ED020BEF
:1055D000139EE74826F0004585420ADC9DED120B3C
:1055E000002084ED000B0AB0BDEC088B03B0BDE8D1
:1055F000F08FE0489FEDE0AB9FEDE1BBA84247DDB7
:10560000E14F9FEDE39B9FEDE48B9DED120B53EC7F
:105610001A2B51EC100B002E1CDDFBF7B5FE41ECF4
:10562000100BBD4208D053EC1B2B51EC100BFBF7B9
:10563000ABFEC4E900010BE053EC192B51EC100B4D
:10564000FBF7A2FE53EC182BFBF79EFEC4E900010A
:105650000120C8E7FBF7F7FD41EC100BBD4208D075
:1056600053EC1B2B51EC100BFBF7EDFDC4E90001D3
:105670000BE053EC192B51EC100BFBF7E4FD53EC52
:10568000182BFBF7E0FDC4E900014FF0FF30AAE75B
:10569000C348A84279DB9DED120B51EC100B01F0D1
:1056A0004FF841EC180B9FEDC00B53EC102BFBF7A0
:1056B00076FB9FEDBF1B53EC112BFBF7C4FDFBF7F3
:1056C0006DFC0746FBF74CFC41EC190B53EC1A2B15
:1056D000FBF765FB53EC182BFBF759FE41EC180B5D
:1056E00053EC1B2B51EC190BFBF759FBDFF8C8A24D
:1056F00041EC100B4FEA15580125FA4453EC102BDE
:1057000051EC180BFBF740FE032DC4E900013DD01E
:10571000C1F30A5005EB4511A8EB00001139814295
:1057200034DA0AEB051BB0EE48AA9BED000BF0EE55
:1057300068AA53EC102B51EC190BFBF730FB41EC32
:105740001B0B51EC1A0B53EC1B2BFBF71DFE41EC12
:10575000180B51EC1A0B53EC182BFBF715FE53ECFE
:105760001B2BFBF711FE9BED020B41EC1A0B53ECCC
:10577000102B51EC190BFBF712FB53EC1A2BFBF718
:1057800003FE41EC100B6D1CB8E70EE0002EA8BF25
:105790003846BFF628AF94ED000B51EC100B81F0AA
:1057A0000041C4E9000178421DE7C6F3130040F44C
:1057B000801EC6F30A50A0F2F530471100F01F0515
:1057C000C5F12000DDF848B0089000200690079051
:1057D0000520EC467949002D07EB0002794408BF0B
:1057E00051F8221009D051F8223001EB8201AB4070
:1057F0004A68089922FA01F11943A1FB0E26A1FB80
:105800000B131A449A4234BF0123002303EB06080A
:105810000CEB8003D3E901A60E448E4234BF012174
:10582000002192448A4411B1924502D903E0924585
:1058300001D2012100E00021C3E901A641444CF856
:105840002010011EA0F10100C4DC029800F10050FC
:10585000850F0298DDE903678000DDF81480FBF70F
:105860007FFB41EC1A0B3046FBF78BFB9FED541B83
:1058700053EC112BFBF793FA41EC1B0B3846FBF76B
:1058800080FB9FED511B53EC112BFBF788FA41EC89
:10589000180B4046FBF775FB9FED4D1B53EC112B8E
:1058A000FBF77DFA41EC190B51EC180B53EC192B5B
:1058B000FBF7C9FC53EC1B2BFBF7C5FC53EC1A2B75
:1058C000FBF7C1FCCDE90801002008909DED080B15
:1058D00053EC1A2B51EC100BFBF756FD53EC1B2B22
:1058E000FBF752FD53EC182BFBF74EFD53EC192B35
:1058F000FBF74DFD9FED381B53EC112BFBF74FFAD7
:105900009FED370B41EC180B53EC102B9DED080B62
:1059100051EC100BFBF743FA53EC182BFBF793FCFD
:105920009FED310B41EC180B53EC102B9DED080B48
:1059300051EC100BFBF733FA53EC182BFBF783FCFD
:1059400041EC100B139810F0004F06D06D4251EC53
:10595000100B81F0004141EC100B284684ED000B48
:1059600041E6000000000000000000000000000010
:10597000FB21E93F7CD9024000004054FB21F93F64
:105980003163621A61B4D03DFB21F93F0000000091
:105990000000601A61B4D03D7370032E8A19A33BD6
:1059A000FB2139410000000083C8C96D305FE43F2E
:1059B000000000000000E03FB2B8000000B80000A6
:1059C000000000000000103E000000000000103C3D
:1059D000000000000000103A182D4454FB21F93D4E
:1059E0003326A611460B113C00000054FB21F93D63
:1059F00010B52DED040B2DED088B82B0B0EE419A61
:105A0000F0EE619A0B9820F000449FED4BABB4F19F
:105A1000795F11DA9DED0A0B51EC100BFBF7BEFA22
:105A2000002801BFB0EE4A0AF0EE6A0A02B0BDECEF
:105A3000088B04BF04B010BD9DED0A0B53EC102B76
:105A400051EC100BFBF7ABF941EC180B3C4806216D
:105A5000B0EE480AF0EE680A784400F081F853ECA2
:105A6000182B51EC100BFBF79AF99DED0A0B41EC4A
:105A70001B0B53EC192B51EC100BFBF790F941EC7D
:105A8000190B53EC1B2B51EC180BFBF788F953EC5B
:105A9000192BFBF779FC9FED2C0B41EC190B53EC08
:105AA000102B51EC180BFBF77AF941EC100B28483E
:105AB000844210DA53EC192B51EC100BFBF764FC09
:105AC00053EC1A2BFBF763FC41EC100B02B0BDEC5E
:105AD000088B04B010BD1F48A042BCBF9FED1E1B29
